:1000000030C040C03FC03EC03DC03CC03BC03AC015
:1000100039C038C037C036C035C034C033C032C034
:1000200031C030C02FC0036EDB363D9A9999993D9F
:10003000ABAAAA2A3E000000803F072C7AA5BA6C22
:10004000C590DA3B9365FC8BBC53F810FD3C56928F
:10005000834DBD879D3AB63DCBC9BF5BBE73DA0FFA
:10006000C93F11241FBECFEDCDBF10E0A0E6B0E028
:10007000E2EAF8E002C005900D92A838B107D9F77E
:10008000D9D00DC4BDCF20E030E0281739074CF49B
:1000900042E04A95F1F700C02F5F3F4F281739071C
:1000A000BCF30895CF93DF9396B3C1E0D0E002C0D4
:1000B000CC0FDD1F6A95E2F79C2B96BBE7EEF3E0D1
:1000C0003197F1F700C0000090E0DDDF86B3C82B68
:1000D000C6BBDF91CF9108958F929F92AF92BF924E
:1000E000CF92DF92EF92FF920F931F93CF93DF9304
:1000F0008C01EB01BC01990F880B990B20D26B018D
:100100007C01CE01BE01BAD3EC01C801B801B6D35F
:100110008C0F9D1FBC01990F880B990B10D25BD3DC
:100120004B015C019B01AC01C701B601E5D2A701FF
:1001300096016FD1A7019601DFD26B017C01BE0150
:10014000DD0F880B990BFBD19B01AC01C701B601F8
:10015000E5D0D5D06B017C0120E030E040E251E4F5
:10016000C501B40156D13ED14B015C01C701B601B6
:1001700090589B01AC01D2D02BED3FE049E450E414
:10018000BBD26B017C01A5019401C501B401C6D0AD
:100190002BED3FE049E450E4AFD29B01AC01C70135
:1001A000B601BCD020E030E044EB52E4B7D099D1A6
:1001B000862FDF91CF911F910F91FF90EF90DF90ED
:1001C000CF90BF90AF909F908F9008950F931F9303
:1001D000CF93DF938C01EB01C801B8014FD39C0191
:1001E000CE01BE014BD3820F931FBC01990F880B28
:1001F000990BA5D1F0D220E030E040E251E409D1E2
:10020000F1D020E030E040E050EC76D29B01AC0130
:1002100085D02BED3FE049E450E46ED220E030E0A1
:1002200044E353E47BD05DD1862FDF91CF911F91C2
:100230000F910895CF93DF93CDB7DD27C852CDBF7F
:100240001BB888E08AB986E083B989E189B912B818
:100250008FEF87BB899A80E2E0E6F0E0DE0111963D
:1002600001900D928A95E1F788E0E0E8F0E0DE0188
:10027000919601900D928A95E1F72FE12815B8F536
:100280003AC0A82CB12CAA0CBB1CAA0CBB1C092D73
:1002900010E0F501E00FF11FEE0FFF1F81E090E08D
:1002A0008C0F9D1FE80FF91FC180D12CE080F12C2D
:1002B000B601C70111DF000F111FE1E0F0E0EC0F04
:1002C000FD1F0E0F1F1FF80160A1ECDEB601C70174
:1002D0007DDFF80161A1E6DE9394F8E09F12D7CFAD
:1002E00080E197E2D0DE839420E2821621F037E0AD
:1002F000391538F6F5CF80E090E0C5DEBECF9F938C
:100300009F7758D10F9000203AF49058A2EA2AED36
:100310003FE049E450E413D0B5C15058BB27AA27A9
:100320000ED0B0C1A1D130F0A6D120F031F49F3F62
:1003300011F41EF460C10EF4E095E7FB56C1E92FFD
:10034000B2D180F3BA17620773078407950718F0D4
:1003500071F49EF5CAC10EF4E0950B2EBA2FA02DB4
:100360000B01B90190010C01CA01A0011124FF2762
:10037000591B99F0593F50F4503E68F11A16F0405D
:10038000A22F232F342F4427585FF3CF469537955C
:100390002795A795F0405395C9F77EF41F16BA0B21
:1003A000620B730B840BBAF09150A1F0FF0FBB1FCF
:1003B000661F771F881FC2F70EC0BA0F621F731F18
:1003C000841F48F4879577956795B795F7959E3F75
:1003D00008F0B3CF9395880F08F09927EE0F979503
:1003E000879508959F939F77EEE389379E0720F4C2
:1003F000E6E2F0E028D109C0DDD09058A2EA2AED6B
:100400003FE049EC5FE39BDF3DD10F9007FC905844
:1004100008950CD037C12FD140F026D130F021F40F
:100420005F3F19F0E2C0511161C1E5C03CD198F3C2
:100430009923C9F35523B1F3951B550BBB27AA2765
:1004400062177307840738F09F5F5F4F220F331FD7
:10045000441FAA1FA9F333D00E2E3AF0E0E830D0A3
:1004600091505040E695001CCAF729D0FE2F27D0A6
:10047000660F771F881FBB1F261737074807AB0774
:10048000B0E809F0BB0B802DBF01FF2793585F4FE9
:100490002AF09E3F510568F0A8C028C15F3FECF3E9
:1004A000983EDCF3869577956795B795F7959F5FAE
:1004B000C9F7880F911D9695879597F90895E1E002
:1004C000660F771F881FBB1F621773078407BA0761
:1004D00020F0621B730B840BBA0BEE1F88F7E095BC
:1004E0000895E9D088F09F5790F0B92F9927B75118
:1004F000A0F0D1F0660F771F881F991F1AF0BA95E8
:10050000C9F712C0B13081F0F0D0B1E00895EDC06C
:10051000672F782F8827B85F39F0B93FCCF38695DD
:1005200077956795B395D9F73EF49095809570953A
:1005300061957F4F8F4F9F4F0895E89409C097FBB7
:100540003EF490958095709561957F4F8F4F9F4FAA
:100550009923A9F0F92F96E9BB279395F6958795EE
:1005600077956795B795F111F8CFFAF4BB0F11F4B1
:1005700060FF1BC06F5F7F4F8F4F9F4F16C0882358
:1005800011F096E911C0772321F09EE8872F762F8E
:1005900005C0662371F096E8862F70E060E02AF0CF
:1005A0009A95660F771F881FDAF7880F96958795BB
:1005B00097F90895DF93CF931F930F938B01EC016D
:1005C000EAE3F0E01BD05ED09801AE018B01EC01B4
:1005D00060E070E080E89FE3A0DEFDD09801AE010E
:1005E0000F911F91CF91DF9192C097F99F6780E89B
:1005F00070E060E008959FEF80EC0895DF93CF9363
:100600001F930F93FF92EF92DF927B018C0168940E
:1006100005C0DA2EEF017BD0FE01E894A59125916B
:10062000359145915591AEF3EF0189DEFE019701B9
:10063000A801DA9479F7DF90EF90FF900F911F9166
:10064000CF91DF9108959F938F937F936F93FF9343
:10065000EF939B01AC0150D0EF91FF91CFDF2F9131
:100660003F914F915F9148C000240A9416161706D7
:1006700018060906089500240A9412161306140693
:1006800005060895092E0394000C11F4882352F0F6
:10069000BB0F40F4BF2B11F460FF04C06F5F7F4FAE
:1006A0008F4F9F4F089557FD9058440F551F59F095
:1006B0005F3F71F04795880F97FB991F61F09F3F4F
:1006C00079F087950895121613061406551FF2CF78
:1006D0004695F1DF08C0161617061806991FF1CFC8
:1006E00086957105610508940895E894BB276627EF
:1006F0007727CB0197F908950AD0C4CFB5DF28F04A
:10070000BADF18F0952309F070CF75CFEFCFCBDFAC
:10071000A8F39923D9F35523C9F3950F50E0551F3A
:10072000AA27EE27FF27BB2700240894679520F40B
:10073000E20FF31FB41F0A1E220F331F441FAA1F0C
:100740006695A9F7779530F4F30FB41F0A1E121EB1
:1007500008F46395330F441FAA1F221F769599F75B
:10076000879520F4B40F0A1E121E631F440FAA1FA0
:10077000221F331F8695A9F7862F712D602D112416
:100780009F5750408AF0E1F088234AF0EE0FFF1F98
:10079000BB1F661F771F881F91505040A9F79E3FCF
:1007A000510570F022CFA2CF5F3FECF3983EDCF30F
:1007B000869577956795B795F795E7959F5FC1F70C
:1007C000FE2B880F911D9695879597F9089511F442
:1007D0000EF411CF3EC06FDFD0F39923D9F3CEF3DF
:1007E0009F57550B87FF43D00024A0E640EA9001B5
:1007F00080585695979528F4805C660F771F881F60
:1008000020F026173707480730F4621B730B840B60
:10081000202931294A2BA6951794079420253125A4
:100820004A2758F7660F771F881F20F026173707CB
:10083000480730F4620B730B840B200D311D411DF2
:10084000A09581F7B901842F9158880F96958795C7
:1008500008959F3F31F0915020F4879577956795E3
:10086000B795880F911D9695879597F908959150A2
:100870005040660F771F881FD2F708950024552730
:1008800004C0080E591F880F991F009729F076950C
:100890006795B8F37105B9F7802D952F0895F894F1
:0208A000FFCF88
:1008A20007070007000707070007F907F90700070E
:1008B2000007070707070007F90700070007F907FE
:0808C200000102030405060712
:00000001FF
