S0120000717561647275706564652E73726563E2
S11300000C9434000C9451000C9451000C94510045
S11300100C9451000C9451000C9451000C94510018
S11300200C9451000C9451000C9451000C94510008
S11300300C9451000C9451000C9451000C945100F8
S11300400C9451000C9451000C9451000C945100E8
S11300500C9451000C9451000C9451000C945100D8
S11300600C9451000C94510011241FBECFEFD8E022
S1130070DEBFCDBF11E0A0E0B1E0E8EBF1E002C0EB
S113008005900D92A030B107D9F721E0A0E0B1E0CE
S113009001C01D92A030B207E1F70E948E000C94BB
S11300A0DA000C940000E0ECF0E0908195FFFDCFC5
S11300B08093C6000895319A20E030E090E0AC01CE
S11300C0022E02C0559547950A94E2F740FF1CC0E2
S11300D0329A41E24A95F1F70000309A41E24A959A
S11300E0F1F70000329A41E24A95F1F70000309AA4
S11300F041E24A95F1F700002F5F3F4F2830310568
S1130100F1F6319A0000089541E24A95F1F70000B2
S1130110309A41E24A95F1F70000E5CF87B18F614B
S113012087B986B18A6086B98AB182688AB982E061
S11301308093C00088E18093C10086E08093C20070
S11301408CE08093C400339A81E28A95F1F7000031
S1130150339AC0ECD0E006EC10E08881882334F5B3
S1130160F8018081823399F028F4803341F081339F
S113017051F019C0833379F0843389F014C086E5D3
S11301800E94530013C085E50E9453000FC084E40D
S11301900E9453000BC08CE40E94530007C082E508
S11301A00E94530003C083E20E9453008EE70E9422
S10B01B05B00D3CFF894FFCFEC
S9030000FC
