S0120000717561647275706564652E73726563E2
S113000012C017C016C015C014C013C012C011C04E
S113001010C00FC00EC00DC00CC00BC00AC009C078
S113002008C007C006C011241FBECFEDCDBF02D04B
S113003027C0E6CF1BB888E18AB986E083B980E39C
S113004089B912B88FEF87BB899A8CE42FE49AE0C0
S11300505D9BFECF8CB95D9BFECF2CB95D9BFECF23
S11300608CB95D9BFECF9CB95D9BFECF3FEF49E60B
S113007058E1315040405040E1F700C00000E8CF63
S1070080F894FFCF1E
S9030000FC
