:100000000C9434000C9451000C9451000C94510049
:100010000C9451000C9451000C9451000C9451001C
:100020000C9451000C9451000C9451000C9451000C
:100030000C9451000C9451000C9451000C945100FC
:100040000C9451000C9451000C9451000C945100EC
:100050000C9451000C9451000C9451000C945100DC
:100060000C9451000C94510011241FBECFEFD8E026
:10007000DEBFCDBF11E0A0E0B1E0E2EAF1E002C0F6
:1000800005900D92A230B107D9F721E0A2E0B1E0CE
:1000900001C01D92A230B207E1F70E945B000C94F0
:1000A000CF000C940000E0ECF0E0908195FFFDCFD4
:1000B0008093C600089588E18093C10086E0809314
:1000C000C200209100013091010122953295307FCC
:1000D0003227207F3227032E000C440B550B60E0A3
:1000E00072E18AE790E00E94AD0081E0820F809388
:1000F000C400519AC0ECD0E006EC10E0888185FF86
:1001000022C0F8018081823399F028F4803341F0D5
:10011000813351F018C0833379F0843389F013C0F0
:1001200086E50E9453000FC085E50E9453000BC076
:1001300084E40E94530007C08CE40E94530003C073
:1001400082E50E945300FFEF29E688E1F15020404C
:100150008040E1F700C00000D1CFA1E21A2EAA1B17
:10016000BB1BFD010DC0AA1FBB1FEE1FFF1FA21767
:10017000B307E407F50720F0A21BB30BE40BF50B64
:10018000661F771F881F991F1A9469F760957095ED
:10019000809590959B01AC01BD01CF010895F89425
:0201A000FFCF8F
:0201A2008025B6
:00000001FF
